{
  "contractName": "Transact",
  "abi": [
    {
      "constant": true,
      "inputs": [],
      "name": "k",
      "outputs": [
        {
          "name": "",
          "type": "uint256"
        }
      ],
      "payable": false,
      "stateMutability": "view",
      "type": "function",
      "signature": "0xb4f40c61"
    },
    {
      "constant": true,
      "inputs": [
        {
          "name": "",
          "type": "uint256"
        }
      ],
      "name": "lands",
      "outputs": [
        {
          "name": "n",
          "type": "uint256"
        },
        {
          "name": "province",
          "type": "string"
        },
        {
          "name": "district",
          "type": "string"
        },
        {
          "name": "landNo",
          "type": "string"
        },
        {
          "name": "owner",
          "type": "address"
        }
      ],
      "payable": false,
      "stateMutability": "view",
      "type": "function",
      "signature": "0xe261f1e5"
    },
    {
      "inputs": [],
      "payable": false,
      "stateMutability": "nonpayable",
      "type": "constructor",
      "signature": "constructor"
    },
    {
      "anonymous": false,
      "inputs": [
        {
          "indexed": false,
          "name": "_p",
          "type": "uint256"
        }
      ],
      "name": "Thappened",
      "type": "event",
      "signature": "0x6e5de354fb9f528a9da649e948a3afaab47b5c84488d504e440dd94ad6322f7a"
    },
    {
      "anonymous": false,
      "inputs": [
        {
          "components": [
            {
              "name": "n",
              "type": "uint256"
            },
            {
              "name": "province",
              "type": "string"
            },
            {
              "name": "district",
              "type": "string"
            },
            {
              "name": "landNo",
              "type": "string"
            },
            {
              "name": "owner",
              "type": "address"
            }
          ],
          "indexed": false,
          "name": "p",
          "type": "tuple"
        }
      ],
      "name": "fail",
      "type": "event",
      "signature": "0x8df49178fab5ef92fb1013bbb018d30c9f8fc6e38033e578a06c73f3d8563320"
    },
    {
      "constant": false,
      "inputs": [
        {
          "name": "l",
          "type": "uint256"
        },
        {
          "name": "newOwner",
          "type": "address"
        }
      ],
      "name": "changeOwner",
      "outputs": [
        {
          "name": "",
          "type": "bool"
        }
      ],
      "payable": false,
      "stateMutability": "nonpayable",
      "type": "function",
      "signature": "0x784796f7"
    },
    {
      "constant": false,
      "inputs": [
        {
          "components": [
            {
              "name": "n",
              "type": "uint256"
            },
            {
              "name": "province",
              "type": "string"
            },
            {
              "name": "district",
              "type": "string"
            },
            {
              "name": "landNo",
              "type": "string"
            },
            {
              "name": "owner",
              "type": "address"
            }
          ],
          "name": "l",
          "type": "tuple"
        }
      ],
      "name": "validate",
      "outputs": [
        {
          "name": "",
          "type": "bool"
        }
      ],
      "payable": false,
      "stateMutability": "nonpayable",
      "type": "function",
      "signature": "0x1861392d"
    }
  ],
  "bytecode": "0x60806040526001805490506002553480156200001a57600080fd5b50600160a060405190810160405280600181526020016040805190810160405280600681526020017f6b6967616c69000000000000000000000000000000000000000000000000000081525081526020016040805190810160405280600881526020017f6b6963756b69726f00000000000000000000000000000000000000000000000081525081526020016040805190810160405280600c81526020017f4b4b20333533207374203332000000000000000000000000000000000000000081525081526020017390238a3fd960dbcfbf6d2114fa67231acc752e5373ffffffffffffffffffffffffffffffffffffffff1681525090806001815401808255809150509060018203906000526020600020906005020160009091929091909150600082015181600001556020820151816001019080519060200190620001629291906200134c565b506040820151816002019080519060200190620001819291906200134c565b506060820151816003019080519060200190620001a09291906200134c565b5060808201518160040160006101000a81548173ffffffffffffffffffffffffffffffffffffffff021916908373ffffffffffffffffffffffffffffffffffffffff160217905550505050600160a060405190810160405280600281526020016040805190810160405280600781526020017f4561737465726e0000000000000000000000000000000000000000000000000081525081526020016040805190810160405280600581526020017f4e676f6d6100000000000000000000000000000000000000000000000000000081525081526020016040805190810160405280600b81526020017f4b6220332073742032313200000000000000000000000000000000000000000081525081526020017390238a3fd960dbcfbf6d2114fa67231acc752e5373ffffffffffffffffffffffffffffffffffffffff1681525090806001815401808255809150509060018203906000526020600020906005020160009091929091909150600082015181600001556020820151816001019080519060200190620003329291906200134c565b506040820151816002019080519060200190620003519291906200134c565b506060820151816003019080519060200190620003709291906200134c565b5060808201518160040160006101000a81548173ffffffffffffffffffffffffffffffffffffffff021916908373ffffffffffffffffffffffffffffffffffffffff160217905550505050600160a060405190810160405280600381526020016040805190810160405280600681526020017f6b6967616c69000000000000000000000000000000000000000000000000000081525081526020016040805190810160405280600a81526020017f4e7961727567656e67650000000000000000000000000000000000000000000081525081526020016040805190810160405280600c81526020017f4b4720313520737420313434000000000000000000000000000000000000000081525081526020017390238a3fd960dbcfbf6d2114fa67231acc752e5373ffffffffffffffffffffffffffffffffffffffff1681525090806001815401808255809150509060018203906000526020600020906005020160009091929091909150600082015181600001556020820151816001019080519060200190620005029291906200134c565b506040820151816002019080519060200190620005219291906200134c565b506060820151816003019080519060200190620005409291906200134c565b5060808201518160040160006101000a81548173ffffffffffffffffffffffffffffffffffffffff021916908373ffffffffffffffffffffffffffffffffffffffff160217905550505050600160a060405190810160405280600481526020016040805190810160405280600681526020017f6b6967616c69000000000000000000000000000000000000000000000000000081525081526020016040805190810160405280600681526020017f47617361626f000000000000000000000000000000000000000000000000000081525081526020016040805190810160405280600c81526020017f4b6b20313233207374203738000000000000000000000000000000000000000081525081526020017390238a3fd960dbcfbf6d2114fa67231acc752e5373ffffffffffffffffffffffffffffffffffffffff1681525090806001815401808255809150509060018203906000526020600020906005020160009091929091909150600082015181600001556020820151816001019080519060200190620006d29291906200134c565b506040820151816002019080519060200190620006f19291906200134c565b506060820151816003019080519060200190620007109291906200134c565b5060808201518160040160006101000a81548173ffffffffffffffffffffffffffffffffffffffff021916908373ffffffffffffffffffffffffffffffffffffffff160217905550505050600160a060405190810160405280600581526020016040805190810160405280600781526020017f4561737465726e0000000000000000000000000000000000000000000000000081525081526020016040805190810160405280600681526020017f527562617675000000000000000000000000000000000000000000000000000081525081526020016040805190810160405280600c81526020017f474b20333132332073742038000000000000000000000000000000000000000081525081526020017390238a3fd960dbcfbf6d2114fa67231acc752e5373ffffffffffffffffffffffffffffffffffffffff1681525090806001815401808255809150509060018203906000526020600020906005020160009091929091909150600082015181600001556020820151816001019080519060200190620008a29291906200134c565b506040820151816002019080519060200190620008c19291906200134c565b506060820151816003019080519060200190620008e09291906200134c565b5060808201518160040160006101000a81548173ffffffffffffffffffffffffffffffffffffffff021916908373ffffffffffffffffffffffffffffffffffffffff160217905550505050600160a060405190810160405280600681526020016040805190810160405280600581526020017f536f75746800000000000000000000000000000000000000000000000000000081525081526020016040805190810160405280600481526020017f487579650000000000000000000000000000000000000000000000000000000081525081526020016040805190810160405280600b81526020017f425420313420737420353600000000000000000000000000000000000000000081525081526020017390238a3fd960dbcfbf6d2114fa67231acc752e5373ffffffffffffffffffffffffffffffffffffffff168152509080600181540180825580915050906001820390600052602060002090600502016000909192909190915060008201518160000155602082015181600101908051906020019062000a729291906200134c565b50604082015181600201908051906020019062000a919291906200134c565b50606082015181600301908051906020019062000ab09291906200134c565b5060808201518160040160006101000a81548173ffffffffffffffffffffffffffffffffffffffff021916908373ffffffffffffffffffffffffffffffffffffffff160217905550505050600160a060405190810160405280600781526020016040805190810160405280600681526020017f6b6967616c69000000000000000000000000000000000000000000000000000081525081526020016040805190810160405280600881526020017f6b6963756b69726f00000000000000000000000000000000000000000000000081525081526020016040805190810160405280600b81526020017f4b4b20343820737420343500000000000000000000000000000000000000000081525081526020017390238a3fd960dbcfbf6d2114fa67231acc752e5373ffffffffffffffffffffffffffffffffffffffff168152509080600181540180825580915050906001820390600052602060002090600502016000909192909190915060008201518160000155602082015181600101908051906020019062000c429291906200134c565b50604082015181600201908051906020019062000c619291906200134c565b50606082015181600301908051906020019062000c809291906200134c565b5060808201518160040160006101000a81548173ffffffffffffffffffffffffffffffffffffffff021916908373ffffffffffffffffffffffffffffffffffffffff160217905550505050600160a060405190810160405280600881526020016040805190810160405280600781526020017f4e6f746865726e0000000000000000000000000000000000000000000000000081525081526020016040805190810160405280600781526020017f476963756d62690000000000000000000000000000000000000000000000000081525081526020016040805190810160405280600b81526020017f524220313220737420373800000000000000000000000000000000000000000081525081526020017390238a3fd960dbcfbf6d2114fa67231acc752e5373ffffffffffffffffffffffffffffffffffffffff168152509080600181540180825580915050906001820390600052602060002090600502016000909192909190915060008201518160000155602082015181600101908051906020019062000e129291906200134c565b50604082015181600201908051906020019062000e319291906200134c565b50606082015181600301908051906020019062000e509291906200134c565b5060808201518160040160006101000a81548173ffffffffffffffffffffffffffffffffffffffff021916908373ffffffffffffffffffffffffffffffffffffffff160217905550505050600160a060405190810160405280600981526020016040805190810160405280600681526020017f6b6967616c69000000000000000000000000000000000000000000000000000081525081526020016040805190810160405280600681526020017f47617361626f000000000000000000000000000000000000000000000000000081525081526020016040805190810160405280600d81526020017f4b4b20323133207374203331310000000000000000000000000000000000000081525081526020017390238a3fd960dbcfbf6d2114fa67231acc752e5373ffffffffffffffffffffffffffffffffffffffff168152509080600181540180825580915050906001820390600052602060002090600502016000909192909190915060008201518160000155602082015181600101908051906020019062000fe29291906200134c565b506040820151816002019080519060200190620010019291906200134c565b506060820151816003019080519060200190620010209291906200134c565b5060808201518160040160006101000a81548173ffffffffffffffffffffffffffffffffffffffff021916908373ffffffffffffffffffffffffffffffffffffffff160217905550505050600160a060405190810160405280600a81526020016040805190810160405280600681526020017f6b6967616c69000000000000000000000000000000000000000000000000000081525081526020016040805190810160405280600a81526020017f4e7961727567656e67650000000000000000000000000000000000000000000081525081526020016040805190810160405280600c81526020017f4b4b20333520737420313030000000000000000000000000000000000000000081525081526020017390238a3fd960dbcfbf6d2114fa67231acc752e5373ffffffffffffffffffffffffffffffffffffffff1681525090806001815401808255809150509060018203906000526020600020906005020160009091929091909150600082015181600001556020820151816001019080519060200190620011b29291906200134c565b506040820151816002019080519060200190620011d19291906200134c565b506060820151816003019080519060200190620011f09291906200134c565b5060808201518160040160006101000a81548173ffffffffffffffffffffffffffffffffffffffff021916908373ffffffffffffffffffffffffffffffffffffffff16021790555050505060008090505b60018054905081101562001345577390238a3fd960dbcfbf6d2114fa67231acc752e5360006001838154811015156200127657fe5b90600052602060002090600502016003016040518082805460018160011615610100020316600290048015620012e65780601f10620012c3576101008083540402835291820191620012e6565b820191906000526020600020905b815481529060010190602001808311620012d1575b5050915050908152602001604051809103902060006101000a81548173ffffffffffffffffffffffffffffffffffffffff021916908373ffffffffffffffffffffffffffffffffffffffff160217905550808060010191505062001241565b50620013fb565b828054600181600116156101000203166002900490600052602060002090601f016020900481019282601f106200138f57805160ff1916838001178555620013c0565b82800160010185558215620013c0579182015b82811115620013bf578251825591602001919060010190620013a2565b5b509050620013cf9190620013d3565b5090565b620013f891905b80821115620013f4576000816000905550600101620013da565b5090565b90565b610c20806200140b6000396000f3fe608060405260043610610062576000357c0100000000000000000000000000000000000000000000000000000000900463ffffffff1680631861392d14610067578063784796f7146100a4578063b4f40c61146100e1578063e261f1e51461010c575b600080fd5b34801561007357600080fd5b5061008e6004803603610089919081019061087e565b61014d565b60405161009b9190610a0b565b60405180910390f35b3480156100b057600080fd5b506100cb60048036036100c691908101906108e8565b6101d1565b6040516100d89190610a0b565b60405180910390f35b3480156100ed57600080fd5b506100f66104fd565b6040516101039190610a48565b60405180910390f35b34801561011857600080fd5b50610133600480360361012e91908101906108bf565b610503565b604051610144959493929190610a63565b60405180910390f35b60003373ffffffffffffffffffffffffffffffffffffffff16826080015173ffffffffffffffffffffffffffffffffffffffff16141561019057600190506101cc565b7f8df49178fab5ef92fb1013bbb018d30c9f8fc6e38033e578a06c73f3d8563320826040516101bf9190610a26565b60405180910390a1600090505b919050565b60007f6e5de354fb9f528a9da649e948a3afaab47b5c84488d504e440dd94ad6322f7a836040516102029190610a48565b60405180910390a1610483600180850381548110151561021e57fe5b906000526020600020906005020160a0604051908101604052908160008201548152602001600182018054600181600116156101000203166002900480601f0160208091040260200160405190810160405280929190818152602001828054600181600116156101000203166002900480156102db5780601f106102b0576101008083540402835291602001916102db565b820191906000526020600020905b8154815290600101906020018083116102be57829003601f168201915b50505050508152602001600282018054600181600116156101000203166002900480601f01602080910402602001604051908101604052809291908181526020018280546001816001161561010002031660029004801561037d5780601f106103525761010080835404028352916020019161037d565b820191906000526020600020905b81548152906001019060200180831161036057829003601f168201915b50505050508152602001600382018054600181600116156101000203166002900480601f01602080910402602001604051908101604052809291908181526020018280546001816001161561010002031660029004801561041f5780601f106103f45761010080835404028352916020019161041f565b820191906000526020600020905b81548152906001019060200180831161040257829003601f168201915b505050505081526020016004820160009054906101000a900473ffffffffffffffffffffffffffffffffffffffff1673ffffffffffffffffffffffffffffffffffffffff1673ffffffffffffffffffffffffffffffffffffffff168152505061014d565b156104f25781600180850381548110151561049a57fe5b906000526020600020906005020160040160006101000a81548173ffffffffffffffffffffffffffffffffffffffff021916908373ffffffffffffffffffffffffffffffffffffffff160217905550600190506104f7565b600090505b92915050565b60025481565b60018181548110151561051257fe5b9060005260206000209060050201600091509050806000015490806001018054600181600116156101000203166002900480601f0160208091040260200160405190810160405280929190818152602001828054600181600116156101000203166002900480156105c45780601f10610599576101008083540402835291602001916105c4565b820191906000526020600020905b8154815290600101906020018083116105a757829003601f168201915b505050505090806002018054600181600116156101000203166002900480601f0160208091040260200160405190810160405280929190818152602001828054600181600116156101000203166002900480156106625780601f1061063757610100808354040283529160200191610662565b820191906000526020600020905b81548152906001019060200180831161064557829003601f168201915b505050505090806003018054600181600116156101000203166002900480601f0160208091040260200160405190810160405280929190818152602001828054600181600116156101000203166002900480156107005780601f106106d557610100808354040283529160200191610700565b820191906000526020600020905b8154815290600101906020018083116106e357829003601f168201915b5050505050908060040160009054906101000a900473ffffffffffffffffffffffffffffffffffffffff16905085565b600061073c8235610b77565b905092915050565b600082601f830112151561075757600080fd5b813561076a61076582610af8565b610acb565b9150808252602083016020830185838301111561078657600080fd5b610791838284610b93565b50505092915050565b600060a082840312156107ac57600080fd5b6107b660a0610acb565b905060006107c68482850161086a565b600083015250602082013567ffffffffffffffff8111156107e657600080fd5b6107f284828501610744565b602083015250604082013567ffffffffffffffff81111561081257600080fd5b61081e84828501610744565b604083015250606082013567ffffffffffffffff81111561083e57600080fd5b61084a84828501610744565b606083015250608061085e84828501610730565b60808301525092915050565b60006108768235610b89565b905092915050565b60006020828403121561089057600080fd5b600082013567ffffffffffffffff8111156108aa57600080fd5b6108b68482850161079a565b91505092915050565b6000602082840312156108d157600080fd5b60006108df8482850161086a565b91505092915050565b600080604083850312156108fb57600080fd5b60006109098582860161086a565b925050602061091a85828601610730565b9150509250929050565b61092d81610b2f565b82525050565b61093c81610b41565b82525050565b600061094d82610b24565b808452610961816020860160208601610ba2565b61096a81610bd5565b602085010191505092915050565b600060a08301600083015161099060008601826109fc565b50602083015184820360208601526109a88282610942565b915050604083015184820360408601526109c28282610942565b915050606083015184820360608601526109dc8282610942565b91505060808301516109f16080860182610924565b508091505092915050565b610a0581610b6d565b82525050565b6000602082019050610a206000830184610933565b92915050565b60006020820190508181036000830152610a408184610978565b905092915050565b6000602082019050610a5d60008301846109fc565b92915050565b600060a082019050610a7860008301886109fc565b8181036020830152610a8a8187610942565b90508181036040830152610a9e8186610942565b90508181036060830152610ab28185610942565b9050610ac16080830184610924565b9695505050505050565b6000604051905081810181811067ffffffffffffffff82111715610aee57600080fd5b8060405250919050565b600067ffffffffffffffff821115610b0f57600080fd5b601f19601f8301169050602081019050919050565b600081519050919050565b6000610b3a82610b4d565b9050919050565b60008115159050919050565b600073ffffffffffffffffffffffffffffffffffffffff82169050919050565b6000819050919050565b6000610b8282610b4d565b9050919050565b6000819050919050565b82818337600083830152505050565b60005b83811015610bc0578082015181840152602081019050610ba5565b83811115610bcf576000848401525b50505050565b6000601f19601f830116905091905056fea265627a7a723058209bc566ad52fe643ca2c1268f771255f1913e55ea144676140a1714cb360d05b86c6578706572696d656e74616cf50037",
  "source": "pragma solidity ^0.5.0;\npragma experimental ABIEncoderV2;\n\n/**\n * The Transact contract does this and that...\n */\ncontract Transact {\n\tstruct landTitle {\n\t\tuint n;\n\t\tstring province;\n\t\tstring district;\n\t\tstring landNo;\n\t\taddress owner;\n\t\t\n\t}\n\tevent Thappened(uint _p);\n\tevent fail(landTitle p);\n\tmapping (string => address)  landtoOwner;\n\t\n\tlandTitle[] public lands;\n\t//constructor\n\tconstructor () public{\n\n\t\tlands.push(landTitle(1,\"kigali\",\"kicukiro\",\"KK 353 st 32\",0x90238A3FD960dbCFbF6d2114FA67231aCc752e53));\n\t\t\n\t\tlands.push(landTitle(2,\"Eastern\",\"Ngoma\",\"Kb 3 st 212\",0x90238A3FD960dbCFbF6d2114FA67231aCc752e53));\n\t\tlands.push(landTitle(3,\"kigali\",\"Nyarugenge\",\"KG 15 st 144\",0x90238A3FD960dbCFbF6d2114FA67231aCc752e53));\n\t\tlands.push(landTitle(4,\"kigali\",\"Gasabo\",\"Kk 123 st 78\",0x90238A3FD960dbCFbF6d2114FA67231aCc752e53));\n\t\tlands.push(landTitle(5,\"Eastern\", \"Rubavu\",\"GK 3123 st 8\",0x90238A3FD960dbCFbF6d2114FA67231aCc752e53));\n\t\tlands.push(landTitle(6,\"South\",\"Huye\",\"BT 14 st 56\",0x90238A3FD960dbCFbF6d2114FA67231aCc752e53));\n\t\tlands.push(landTitle(7,\"kigali\",\"kicukiro\",\"KK 48 st 45\",0x90238A3FD960dbCFbF6d2114FA67231aCc752e53));\n\t\tlands.push(landTitle(8,\"Nothern\",\"Gicumbi\",\"RB 12 st 78\",0x90238A3FD960dbCFbF6d2114FA67231aCc752e53));\n\t\tlands.push(landTitle(9,\"kigali\", \"Gasabo\",\"KK 213 st 311\",0x90238A3FD960dbCFbF6d2114FA67231aCc752e53));\n\t\tlands.push(landTitle(10,\"kigali\",\"Nyarugenge\",\"KK 35 st 100\",0x90238A3FD960dbCFbF6d2114FA67231aCc752e53));\n\t\t\n\t\tfor(uint i = 0; i< lands.length ; i++)\n\t\t{\n\t\t\t\n\t\t\tlandtoOwner[lands[i].landNo] = 0x90238A3FD960dbCFbF6d2114FA67231aCc752e53;\n\t\t}\n\t}\n\t\tuint public k = lands.length;\n\n\n\tfunction changeOwner (uint l, address newOwner) public returns(bool) \n\t{\n\t\t\n\t\t\temit Thappened(l);\n\t\t\tif(validate(lands[ l-1 ]))\n\t\t{\n\t\t\n\t\t\tlands[l-1].owner = newOwner;\n\t\t\t\n\t\t\treturn true;\n\t\t\t\n\t\t}\n\n\t\treturn false;\n\t\t}\n\t\tfunction validate (landTitle memory l) public returns (bool) \n\t\t{\n\t\t\t//if(landtoOwner[l.landNo] == msg.sender)\n\t\t\tif(l.owner == msg.sender)\n\t\t\t\t{return true;}\n\t\t\t\temit fail(l);\n\t\t\treturn false;\t\n\t\t}\n\t\t\t\n}\n\n",
  "sourcePath": "/home/osboxes/Desktop/transact/contracts/Transact.sol",
  "compiler": {
    "name": "solc",
    "version": "0.5.0+commit.1d4f565a.Emscripten.clang"
  },
  "schemaVersion": "3.0.2",
  "updatedAt": "2019-02-27T22:06:51.767Z",
  "devdoc": {
    "methods": {}
  },
  "userdoc": {
    "methods": {},
    "notice": "The Transact contract does this and that..."
  }
}